{
  "_format": "hh-sol-artifact-1",
  "contractName": "LegacyWallet",
  "sourceName": "contracts/LegacyWallet.sol",
  "abi": [
    {
      "inputs": [],
      "stateMutability": "payable",
      "type": "constructor"
    },
    {
      "inputs": [],
      "name": "getBalance",
      "outputs": [
        {
          "internalType": "uint256",
          "name": "",
          "type": "uint256"
        }
      ],
      "stateMutability": "view",
      "type": "function"
    },
    {
      "inputs": [],
      "name": "owner",
      "outputs": [
        {
          "internalType": "address",
          "name": "",
          "type": "address"
        }
      ],
      "stateMutability": "view",
      "type": "function"
    },
    {
      "inputs": [],
      "name": "withdraw",
      "outputs": [],
      "stateMutability": "nonpayable",
      "type": "function"
    },
    {
      "stateMutability": "payable",
      "type": "receive"
    }
  ],
  "bytecode": "0x6080604052336000806101000a81548173ffffffffffffffffffffffffffffffffffffffff021916908373ffffffffffffffffffffffffffffffffffffffff1602179055506102f7806100536000396000f3fe6080604052600436106100385760003560e01c806312065fe0146100445780633ccfd60b1461006f5780638da5cb5b146100865761003f565b3661003f57005b600080fd5b34801561005057600080fd5b506100596100b1565b60405161006691906101cd565b60405180910390f35b34801561007b57600080fd5b506100846100b9565b005b34801561009257600080fd5b5061009b610190565b6040516100a89190610229565b60405180910390f35b600047905090565b60008054906101000a900473ffffffffffffffffffffffffffffffffffffffff1673ffffffffffffffffffffffffffffffffffffffff163373ffffffffffffffffffffffffffffffffffffffff1614610147576040517f08c379a000000000000000000000000000000000000000000000000000000000815260040161013e906102a1565b60405180910390fd5b3373ffffffffffffffffffffffffffffffffffffffff166108fc479081150290604051600060405180830381858888f1935050505015801561018d573d6000803e3d6000fd5b50565b60008054906101000a900473ffffffffffffffffffffffffffffffffffffffff1681565b6000819050919050565b6101c7816101b4565b82525050565b60006020820190506101e260008301846101be565b92915050565b600073ffffffffffffffffffffffffffffffffffffffff82169050919050565b6000610213826101e8565b9050919050565b61022381610208565b82525050565b600060208201905061023e600083018461021a565b92915050565b600082825260208201905092915050565b7f4163636573732044656e6965643a204e6f7420746865206f776e657200000000600082015250565b600061028b601c83610244565b915061029682610255565b602082019050919050565b600060208201905081810360008301526102ba8161027e565b905091905056fea26469706673582212206475665feeeec6ce87766a1304a7e946896761780f2cf2210882d991023f897b64736f6c63430008180033",
  "linkReferences": {},
  "deployedLinkReferences": {}
}