{
  "_format": "hh-sol-artifact-1",
  "contractName": "QuantumVault",
  "sourceName": "contracts/QuantumVault.sol",
  "abi": [
    {
      "inputs": [
        {
          "internalType": "bytes32",
          "name": "_quantumLock",
          "type": "bytes32"
        }
      ],
      "stateMutability": "payable",
      "type": "constructor"
    },
    {
      "inputs": [],
      "name": "admin",
      "outputs": [
        {
          "internalType": "address",
          "name": "",
          "type": "address"
        }
      ],
      "stateMutability": "view",
      "type": "function"
    },
    {
      "inputs": [
        {
          "internalType": "address",
          "name": "",
          "type": "address"
        }
      ],
      "name": "balances",
      "outputs": [
        {
          "internalType": "uint256",
          "name": "",
          "type": "uint256"
        }
      ],
      "stateMutability": "view",
      "type": "function"
    },
    {
      "inputs": [],
      "name": "emergencyDrain",
      "outputs": [],
      "stateMutability": "nonpayable",
      "type": "function"
    },
    {
      "inputs": [],
      "name": "getBalance",
      "outputs": [
        {
          "internalType": "uint256",
          "name": "",
          "type": "uint256"
        }
      ],
      "stateMutability": "view",
      "type": "function"
    },
    {
      "inputs": [],
      "name": "quantumLock",
      "outputs": [
        {
          "internalType": "bytes32",
          "name": "",
          "type": "bytes32"
        }
      ],
      "stateMutability": "view",
      "type": "function"
    },
    {
      "inputs": [
        {
          "internalType": "string",
          "name": "latticeSecret",
          "type": "string"
        }
      ],
      "name": "withdrawSecurely",
      "outputs": [],
      "stateMutability": "nonpayable",
      "type": "function"
    },
    {
      "stateMutability": "payable",
      "type": "receive"
    }
  ],
  "bytecode": "0x6080604052604051610abf380380610abf833981810160405281019061002591906100ad565b336000806101000a81548173ffffffffffffffffffffffffffffffffffffffff021916908373ffffffffffffffffffffffffffffffffffffffff16021790555080600181905550506100da565b600080fd5b6000819050919050565b61008a81610077565b811461009557600080fd5b50565b6000815190506100a781610081565b92915050565b6000602082840312156100c3576100c2610072565b5b60006100d184828501610098565b91505092915050565b6109d6806100e96000396000f3fe6080604052600436106100595760003560e01c806303c005aa146100ba57806312065fe0146100e357806327e235e31461010e5780632caac08b1461014b5780632f543a6214610162578063f851a4401461018d576100b5565b366100b55734600260003373ffffffffffffffffffffffffffffffffffffffff1673ffffffffffffffffffffffffffffffffffffffff16815260200190815260200160002060008282546100ad91906104b3565b925050819055005b600080fd5b3480156100c657600080fd5b506100e160048036038101906100dc9190610641565b6101b8565b005b3480156100ef57600080fd5b506100f8610339565b6040516101059190610699565b60405180910390f35b34801561011a57600080fd5b5061013560048036038101906101309190610712565b610341565b6040516101429190610699565b60405180910390f35b34801561015757600080fd5b50610160610359565b005b34801561016e57600080fd5b50610177610450565b6040516101849190610758565b60405180910390f35b34801561019957600080fd5b506101a2610456565b6040516101af9190610782565b60405180910390f35b600154816040516020016101cc919061080e565b6040516020818303038152906040528051906020012014610222576040517f08c379a000000000000000000000000000000000000000000000000000000000815260040161021990610882565b60405180910390fd5b6000600260003373ffffffffffffffffffffffffffffffffffffffff1673ffffffffffffffffffffffffffffffffffffffff168152602001908152602001600020549050600081116102a9576040517f08c379a00000000000000000000000000000000000000000000000000000000081526004016102a090610914565b60405180910390fd5b6000600260003373ffffffffffffffffffffffffffffffffffffffff1673ffffffffffffffffffffffffffffffffffffffff168152602001908152602001600020819055503373ffffffffffffffffffffffffffffffffffffffff166108fc829081150290604051600060405180830381858888f19350505050158015610334573d6000803e3d6000fd5b505050565b600047905090565b60026020528060005260406000206000915090505481565b60008054906101000a900473ffffffffffffffffffffffffffffffffffffffff1673ffffffffffffffffffffffffffffffffffffffff163373ffffffffffffffffffffffffffffffffffffffff16146103e7576040517f08c379a00000000000000000000000000000000000000000000000000000000081526004016103de90610980565b60405180910390fd5b60008054906101000a900473ffffffffffffffffffffffffffffffffffffffff1673ffffffffffffffffffffffffffffffffffffffff166108fc479081150290604051600060405180830381858888f1935050505015801561044d573d6000803e3d6000fd5b50565b60015481565b60008054906101000a900473ffffffffffffffffffffffffffffffffffffffff1681565b6000819050919050565b7f4e487b7100000000000000000000000000000000000000000000000000000000600052601160045260246000fd5b60006104be8261047a565b91506104c98361047a565b92508282019050808211156104e1576104e0610484565b5b92915050565b6000604051905090565b600080fd5b600080fd5b600080fd5b600080fd5b6000601f19601f8301169050919050565b7f4e487b7100000000000000000000000000000000000000000000000000000000600052604160045260246000fd5b61054e82610505565b810181811067ffffffffffffffff8211171561056d5761056c610516565b5b80604052505050565b60006105806104e7565b905061058c8282610545565b919050565b600067ffffffffffffffff8211156105ac576105ab610516565b5b6105b582610505565b9050602081019050919050565b82818337600083830152505050565b60006105e46105df84610591565b610576565b905082815260208101848484011115610600576105ff610500565b5b61060b8482856105c2565b509392505050565b600082601f830112610628576106276104fb565b5b81356106388482602086016105d1565b91505092915050565b600060208284031215610657576106566104f1565b5b600082013567ffffffffffffffff811115610675576106746104f6565b5b61068184828501610613565b91505092915050565b6106938161047a565b82525050565b60006020820190506106ae600083018461068a565b92915050565b600073ffffffffffffffffffffffffffffffffffffffff82169050919050565b60006106df826106b4565b9050919050565b6106ef816106d4565b81146106fa57600080fd5b50565b60008135905061070c816106e6565b92915050565b600060208284031215610728576107276104f1565b5b6000610736848285016106fd565b91505092915050565b6000819050919050565b6107528161073f565b82525050565b600060208201905061076d6000830184610749565b92915050565b61077c816106d4565b82525050565b60006020820190506107976000830184610773565b92915050565b600081519050919050565b600081905092915050565b60005b838110156107d15780820151818401526020810190506107b6565b60008484015250505050565b60006107e88261079d565b6107f281856107a8565b93506108028185602086016107b3565b80840191505092915050565b600061081a82846107dd565b915081905092915050565b600082825260208201905092915050565b7f496e76616c6964205175616e74756d2050726f6f660000000000000000000000600082015250565b600061086c601583610825565b915061087782610836565b602082019050919050565b6000602082019050818103600083015261089b8161085f565b9050919050565b7f4e6f2066756e6473206465706f736974656420666f722074686973206164647260008201527f6573730000000000000000000000000000000000000000000000000000000000602082015250565b60006108fe602383610825565b9150610909826108a2565b604082019050919050565b6000602082019050818103600083015261092d816108f1565b9050919050565b7f41646d696e206f6e6c7900000000000000000000000000000000000000000000600082015250565b600061096a600a83610825565b915061097582610934565b602082019050919050565b600060208201905081810360008301526109998161095d565b905091905056fea264697066735822122035face89d0240b0ac981bee76382197377303ac6e3b2525da4b8d727bc332e6564736f6c63430008180033",
  "linkReferences": {},
  "deployedLinkReferences": {}
}